{
  "_format": "hh-sol-artifact-1",
  "contractName": "DeCalend",
  "sourceName": "contracts/DeCalend.sol",
  "abi": [
    {
      "inputs": [],
      "stateMutability": "nonpayable",
      "type": "constructor"
    },
    {
      "inputs": [
        {
          "internalType": "string",
          "name": "_title",
          "type": "string"
        },
        {
          "internalType": "uint256",
          "name": "_startTime",
          "type": "uint256"
        },
        {
          "internalType": "uint256",
          "name": "_endTime",
          "type": "uint256"
        }
      ],
      "name": "createAppointment",
      "outputs": [],
      "stateMutability": "payable",
      "type": "function"
    },
    {
      "inputs": [],
      "name": "getAppointments",
      "outputs": [
        {
          "components": [
            {
              "internalType": "string",
              "name": "title",
              "type": "string"
            },
            {
              "internalType": "address",
              "name": "attendee",
              "type": "address"
            },
            {
              "internalType": "uint256",
              "name": "startTime",
              "type": "uint256"
            },
            {
              "internalType": "uint256",
              "name": "endTime",
              "type": "uint256"
            },
            {
              "internalType": "uint256",
              "name": "amountPaid",
              "type": "uint256"
            }
          ],
          "internalType": "struct DeCalend.Appointment[]",
          "name": "",
          "type": "tuple[]"
        }
      ],
      "stateMutability": "view",
      "type": "function"
    },
    {
      "inputs": [],
      "name": "getRate",
      "outputs": [
        {
          "internalType": "uint256",
          "name": "",
          "type": "uint256"
        }
      ],
      "stateMutability": "view",
      "type": "function"
    },
    {
      "inputs": [],
      "name": "owner",
      "outputs": [
        {
          "internalType": "address",
          "name": "",
          "type": "address"
        }
      ],
      "stateMutability": "view",
      "type": "function"
    },
    {
      "inputs": [
        {
          "internalType": "uint256",
          "name": "_rate",
          "type": "uint256"
        }
      ],
      "name": "setRate",
      "outputs": [],
      "stateMutability": "nonpayable",
      "type": "function"
    }
  ],
  "bytecode": "0x608060405234801561001057600080fd5b5033600160006101000a81548173ffffffffffffffffffffffffffffffffffffffff021916908373ffffffffffffffffffffffffffffffffffffffff160217905550610df1806100616000396000f3fe60806040526004361061004a5760003560e01c806334fcf4371461004f57806359c35bdf14610078578063679aefce146100945780638da5cb5b146100bf57806396b80d08146100ea575b600080fd5b34801561005b57600080fd5b50610076600480360381019061007191906106fc565b610115565b005b610092600480360381019061008d9190610695565b6101af565b005b3480156100a057600080fd5b506100a96103e1565b6040516100b691906109d7565b60405180910390f35b3480156100cb57600080fd5b506100d46103ea565b6040516100e1919061093a565b60405180910390f35b3480156100f657600080fd5b506100ff610410565b60405161010c9190610955565b60405180910390f35b3373ffffffffffffffffffffffffffffffffffffffff16600160009054906101000a900473ffffffffffffffffffffffffffffffffffffffff1673ffffffffffffffffffffffffffffffffffffffff16146101a5576040517f08c379a000000000000000000000000000000000000000000000000000000000815260040161019c90610997565b60405180910390fd5b8060008190555050565b60008054603c84846101c19190610b44565b6101cb9190610ab9565b6101d59190610aea565b905060003390508134101561021f576040517f08c379a0000000000000000000000000000000000000000000000000000000008152600401610216906109b7565b60405180910390fd5b6000600160009054906101000a900473ffffffffffffffffffffffffffffffffffffffff1673ffffffffffffffffffffffffffffffffffffffff163460405161026790610925565b60006040518083038185875af1925050503d80600081146102a4576040519150601f19603f3d011682016040523d82523d6000602084013e6102a9565b606091505b50509050806102ed576040517f08c379a00000000000000000000000000000000000000000000000000000000081526004016102e490610977565b60405180910390fd5b60026040518060a001604052808881526020018473ffffffffffffffffffffffffffffffffffffffff1681526020018781526020018681526020018581525090806001815401808255809150506001900390600052602060002090600502016000909190919091506000820151816000019080519060200190610371929190610575565b5060208201518160010160006101000a81548173ffffffffffffffffffffffffffffffffffffffff021916908373ffffffffffffffffffffffffffffffffffffffff1602179055506040820151816002015560608201518160030155608082015181600401555050505050505050565b60008054905090565b600160009054906101000a900473ffffffffffffffffffffffffffffffffffffffff1681565b60606002805480602002602001604051908101604052809291908181526020016000905b8282101561056c57838290600052602060002090600502016040518060a001604052908160008201805461046790610bf6565b80601f016020809104026020016040519081016040528092919081815260200182805461049390610bf6565b80156104e05780601f106104b5576101008083540402835291602001916104e0565b820191906000526020600020905b8154815290600101906020018083116104c357829003601f168201915b505050505081526020016001820160009054906101000a900473ffffffffffffffffffffffffffffffffffffffff1673ffffffffffffffffffffffffffffffffffffffff1673ffffffffffffffffffffffffffffffffffffffff168152602001600282015481526020016003820154815260200160048201548152505081526020019060010190610434565b50505050905090565b82805461058190610bf6565b90600052602060002090601f0160209004810192826105a357600085556105ea565b82601f106105bc57805160ff19168380011785556105ea565b828001600101855582156105ea579182015b828111156105e95782518255916020019190600101906105ce565b5b5090506105f791906105fb565b5090565b5b808211156106145760008160009055506001016105fc565b5090565b600061062b61062684610a17565b6109f2565b90508281526020810184848401111561064357600080fd5b61064e848285610bb4565b509392505050565b600082601f83011261066757600080fd5b8135610677848260208601610618565b91505092915050565b60008135905061068f81610da4565b92915050565b6000806000606084860312156106aa57600080fd5b600084013567ffffffffffffffff8111156106c457600080fd5b6106d086828701610656565b93505060206106e186828701610680565b92505060406106f286828701610680565b9150509250925092565b60006020828403121561070e57600080fd5b600061071c84828501610680565b91505092915050565b60006107318383610891565b905092915050565b61074281610b78565b82525050565b61075181610b78565b82525050565b600061076282610a58565b61076c8185610a7b565b93508360208202850161077e85610a48565b8060005b858110156107ba578484038952815161079b8582610725565b94506107a683610a6e565b925060208a01995050600181019050610782565b50829750879550505050505092915050565b60006107d782610a63565b6107e18185610a97565b93506107f1818560208601610bc3565b6107fa81610d15565b840191505092915050565b6000610812601583610aa8565b915061081d82610d26565b602082019050919050565b6000610835602083610aa8565b915061084082610d4f565b602082019050919050565b6000610858601783610aa8565b915061086382610d78565b602082019050919050565b600061087b600083610a8c565b915061088682610da1565b600082019050919050565b600060a08301600083015184820360008601526108ae82826107cc565b91505060208301516108c36020860182610739565b5060408301516108d66040860182610907565b5060608301516108e96060860182610907565b5060808301516108fc6080860182610907565b508091505092915050565b61091081610baa565b82525050565b61091f81610baa565b82525050565b60006109308261086e565b9150819050919050565b600060208201905061094f6000830184610748565b92915050565b6000602082019050818103600083015261096f8184610757565b905092915050565b6000602082019050818103600083015261099081610805565b9050919050565b600060208201905081810360008301526109b081610828565b9050919050565b600060208201905081810360008301526109d08161084b565b9050919050565b60006020820190506109ec6000830184610916565b92915050565b60006109fc610a0d565b9050610a088282610c28565b919050565b6000604051905090565b600067ffffffffffffffff821115610a3257610a31610ce6565b5b610a3b82610d15565b9050602081019050919050565b6000819050602082019050919050565b600081519050919050565b600081519050919050565b6000602082019050919050565b600082825260208201905092915050565b600081905092915050565b600082825260208201905092915050565b600082825260208201905092915050565b6000610ac482610baa565b9150610acf83610baa565b925082610adf57610ade610c88565b5b828204905092915050565b6000610af582610baa565b9150610b0083610baa565b9250817fffffffffffffffffffffffffffffffffffffffffffffffffffffffffffffffff0483118215151615610b3957610b38610c59565b5b828202905092915050565b6000610b4f82610baa565b9150610b5a83610baa565b925082821015610b6d57610b6c610c59565b5b828203905092915050565b6000610b8382610b8a565b9050919050565b600073ffffffffffffffffffffffffffffffffffffffff82169050919050565b6000819050919050565b82818337600083830152505050565b60005b83811015610be1578082015181840152602081019050610bc6565b83811115610bf0576000848401525b50505050565b60006002820490506001821680610c0e57607f821691505b60208210811415610c2257610c21610cb7565b5b50919050565b610c3182610d15565b810181811067ffffffffffffffff82111715610c5057610c4f610ce6565b5b80604052505050565b7f4e487b7100000000000000000000000000000000000000000000000000000000600052601160045260246000fd5b7f4e487b7100000000000000000000000000000000000000000000000000000000600052601260045260246000fd5b7f4e487b7100000000000000000000000000000000000000000000000000000000600052602260045260246000fd5b7f4e487b7100000000000000000000000000000000000000000000000000000000600052604160045260246000fd5b6000601f19601f8301169050919050565b7f4661696c656420746f2073656e64206574686572730000000000000000000000600082015250565b7f4f6e6c7920746865206f776e65722063616e2073657420746865207261746521600082015250565b7f506c656173652073656e64206d6f726520657468657273000000000000000000600082015250565b50565b610dad81610baa565b8114610db857600080fd5b5056fea26469706673582212205bdc1314861e53a3546330b71c2ed5d5e916aea5b7d77f5f1b8282e3cd282fe764736f6c63430008040033",
  "linkReferences": {},
  "deployedLinkReferences": {}
}